:060000000A128A110C280F
:10000800FE00030EF1000A08F2000A128A111628EF
:100018000A128A110F28F401F501F60183010A1268
:100028008A117B28831203138C1D1B281C28742813
:100038001412141B202821282528941F2428252839
:100048002C281308F0007008F600141394131416E3
:1000580083160313941A3128322850281419352886
:1000680036285028831203131308F0007008F6008E
:100078008C11141683160313141C432844283E2895
:10008800831203131308F0007008F500A630F0007F
:10009800F00B4C2800007128941A53285428712812
:1000A800141D572858287128831203131308F000C9
:1000B8007008F600831603131410740883120313D0
:1000C80093001416A630F000F00B68280000831681
:1000D80003131418702871286B28831203138C11CA
:1000E80072088A00710E8300FE0E7E0E09000A1245
:1000F8008A11C1200A128A117503031D84288528D4
:100108008A2801308312031386008028023075067E
:10011800031D8F2890289528043083120313860026
:10012800802803307506031D9A289B28A0281030C4
:100138008312031386008028831203138601802804
:100148000A128A110C28F30073088316031393000C
:1001580036308312031394008030831603139400FF
:1001680001309100871507168B170B17831203139D
:100178008C11831603138C15080083160317880146
:1001880089018316031386018312031386017030D5
:10019800831603138F040F1450300A128A11A720F4
:0601A8000A128A11080092
:04400E00D420FF3F7C
:00000001FF
