:060000000A128A110C280F
:10000800FE00030EF7000A08F8000A168A115C2E93
:100018000A128A110F280A128A11F9270A128A115C
:10002800FB000A128A11FA270A128A11FC00F90148
:10003800FA0183010A128A155D28831203135F08E7
:100048008039E400640883160313A00083120313A5
:100058005F08E4006407E500650883160313A6003B
:1000680083120313DE1F39283A283D288316031309
:1000780026148316031326080319432844285628F0
:10008800260A031D482849285328003083120313E1
:10009800DF000030DE000030DD000030DC008312BD
:1000A800DE176028003083120313DF000030DE0003
:1000B8000030DD000030DC0063088039E4006408AB
:1000C80083160313A006831203136308E40064076E
:1000D800E500650883160313A50083120313E21FC6
:1000E800762877287A288316031325148316031392
:1000F80025080319802881289328250A031D8528A7
:1001080086289028003083120313E3000030E200B1
:100118000030E1000030E0008312E2179D28003033
:1001280083120313E3000030E2000030E1000030E6
:10013800E0008316031325080319A328A428A92877
:100148002608031DA828A928B42800308312031301
:10015800DF000030DE000030DD000030DC007F2DE5
:10016800831203135C08E4006408A00062080A16FE
:100178008A111B270A128A11831203132108831676
:100188000313AC0083120313200883160313AB0078
:100198002B0883120313E400E501E601E701670871
:1001A80083160313A400831203136608831603132C
:1001B800A30083120313650883160313A200831296
:1001C8000313640883160313A1002C088312031376
:1001D800E400E501E601E701670883160313AA00B6
:1001E80083120313660883160313A90083120313EB
:1001F800650883160313A800831203136408831683
:100208000313A700831203135D08E4006408A00029
:1002180061080A168A111B270A128A11831203130E
:10022800210883160313AC008312031320088316D6
:100238000313AB002B0883120313E400E501E60166
:10024800E701640883160313A107831203136508E3
:1002580003110318013E0319342983160313A20757
:1002680083120313660803110318013E03193F297B
:1002780083160313A30783120313670803110318D4
:10028800013E03194A2983160313A4078312031393
:10029800831603132C0883120313E400E501E60117
:1002A800E701640883160313A7078312031365087D
:1002B80003110318013E0319642983160313A807C1
:1002C80083120313660803110318013E03196F29EB
:1002D80083160313A907831203136708031103186E
:1002E800013E03197A2983160313AA0783120313FD
:1002F80083160313831203135E08E4006408A00046
:1003080060080A168A111B270A128A11831203131E
:10031800210883160313AC008312031320088316E5
:100328000313AB002B0883120313E400E501E60175
:10033800E701640883160313A107831203136508F2
:1003480003110318013E0319AC2983160313A207EE
:1003580083120313660803110318013E0319B72912
:1003680083160313A30783120313670803110318E3
:10037800013E0319C22983160313A407831203132A
:10038800831603132C0883120313E400E501E60126
:10039800E701640883160313A7078312031365088C
:1003A80003110318013E0319DC2983160313A80758
:1003B80083120313660803110318013E0319E72982
:1003C80083160313A907831203136708031103187D
:1003D800013E0319F22983160313AA078312031394
:1003E80083160313083083120313E40003108316E3
:1003F8000313A10DA20DA30DA40D83120313E40B87
:10040800FA295D08E4006408A00060080A168A1149
:100418001B270A128A118312031321088316031358
:10042800AC0083120313200883160313AB002B08B8
:1004380083120313E400831603132C088312031397
:10044800E500E601E701640883160313A107831298
:100458000313650803110318013E0319362A83168E
:100468000313A20783120313660803110318013E3E
:100478000319412A83160313A3078312031367087A
:1004880003110318013E03194C2A83160313A4070A
:100498008312031383160313831203135C08E40007
:1004A8006408A00061080A168A111B270A128A111B
:1004B80083120313210883160313AC00831203135A
:1004C800200883160313AB002B0883120313E400E0
:1004D800831603132C0883120313E500E601E701D2
:1004E800640883160313A107831203136508031115
:1004F8000318013E0319832A83160313A2078312E4
:100508000313660803110318013E03198E2A831684
:100518000313A30783120313670803110318013E8B
:100528000319992A83160313A40783120313831646
:100538000313083083120313E40003108316031314
:10054800A10DA20DA30DA40D83120313E40BA12A80
:100558005C08E4006408A00060080A168A111B27DA
:100568000A128A1183120313210883160313AC009D
:1005780083120313200883160313AB002B0883127E
:100588000313E400831603132C0883120313E500F6
:10059800E601E701640883160313A1078312031316
:1005A800650803110318013E0319DD2A8316031396
:1005B800A20783120313660803110318013E0319E7
:1005C800E82A83160313A30783120313670803118A
:1005D8000318013E0319F32A83160313A407831291
:1005E800031383160313831203135D08E4006408DE
:1005F800A00062080A168A111B270A128A118312A0
:100608000313210883160313AC0083120313200875
:1006180083160313AB002B0883120313E40083161D
:1006280003132C0883120313E500E601E7016408AD
:1006380083160313A707831203136508031103180E
:10064800013E03192A2B83160313A80783120313E9
:10065800660803110318013E0319352B831603138B
:10066800A90783120313670803110318013E03192E
:10067800402B83160313AA0783120313831603134D
:10068800831203135E08E4006408A00061080A16D8
:100698008A111B270A128A11831203132108831651
:1006A8000313AC0083120313200883160313AB0053
:1006B8002B0883120313E400831603132C088312F8
:1006C8000313E500E601E701640883160313A7078F
:1006D80083120313650803110318013E0319772BCE
:1006E80083160313A807831203136608031103185C
:1006F800013E0319822B83160313A90783120313E0
:10070800670803110318013E03198D2B8316031381
:10071800AA078312031383160313831203135E08B5
:10072800E4006408A00062080A168A111B270A124E
:100738008A1183120313210883160313AC00831252
:100748000313200883160313AB002B08831203132B
:10075800E400831603132C0883120313E500E60153
:10076800E70108300310E40DE50DE60DE70DFF3E47
:10077800031DB62B640883160313A70783120313FC
:10078800650803110318013E0319CD2B83160313C3
:10079800A80783120313660803110318013E0319FF
:1007A800D82B83160313A9078312031367080311B1
:1007B8000318013E0319E32B83160313AA078312B8
:1007C800031383160313210883120313E40083160B
:1007D8000313220883120313E50083160313230867
:1007E80083120313E60083160313240883120313EA
:1007F800E70018300310E70CE60CE50CE40CFF3EAC
:10080800031DFE2B640883160313A7078312031323
:10081800650803110318013E0319152C83160313E9
:10082800A80783120313660803110318013E03196E
:10083800202C83160313A9078312031367080311D7
:100848000318013E03192B2C83160313AA078312DE
:10085800031383160313083083120313E4000310F1
:1008680083160313A10DA20DA30DA40D8312031368
:10087800E40B332C8316031326082507831203136E
:10088800E400E501E50D6408823E83160313AB001E
:100898008312031365080318013EFF3E83160313F2
:1008A800AC00832C013083120313E4000310831679
:1008B8000313A70DA80DA90DAA0D83120313E40BAA
:1008C8005A2C83160313A41F6A2C6B2C6C2C271428
:1008D800013083120313E400031083160313A10DE0
:1008E800A20DA30DA40D83120313E40B702CFF308B
:1008F80083160313AB070318AC0AFF30AC07A91F14
:10090800862C872C562CA501A41F8B2C8C2CBA2C3A
:10091800FF30210583120313E400FF30831603130D
:10092800220583120313E500FF3083160313230502
:1009380083120313E6007F30831603132405831202
:100948000313E70067086604650464040319AD2C03
:10095800AE2CB32C83160313A501A50ABA2C831653
:100968000313271CB82CB92CBA2CAE2C2508031954
:10097800BE2CBF2C0C2D0130A70700300318013006
:10098800A807003003180130A90700300318013008
:10099800AA072A1CD02CD12C0C2D2708831203134C
:1009A800E40083160313280883120313E500831653
:1009B8000313290883120313E600831603132A0876
:1009C80083120313E7000130E800670DE70CE60C1B
:1009D800E50CE40CE80BE92C670883160313AA005E
:1009E80083120313660883160313A90083120313E3
:1009F800650883160313A80083120313640883167B
:100A08000313A7000130AB070318AC0A0030AC078A
:100A18002C08803AFF0080307F02031D152DFF301F
:100A28002B02031C182D192D242D7F308316031338
:100A3800AA008030A9000030A8000030A700612D6E
:100A4800831603132C08803AFF0080307F02031DB1
:100A58002F2D01302B020318322D332D3F2D00305E
:100A680083160313AA000030A9000030A800003044
:100A7800A700A001612D831603132B08831203130B
:100A8800E400640883160313A600FF30A705FF30AF
:100A9800A8057F30A9050030AA05261C542D552D20
:100AA800562DA917260883120313E4000310640CBB
:100AB800E500650883160313AA00200883120313B0
:100AC800E400640883160313AA042A088312031394
:100AD800DF0083160313290883120313DE0083162D
:100AE8000313280883120313DD0083160313270852
:100AF80083120313DC0008008312031335088039BE
:100B0800B6003608BF003508B6003607B700370804
:100B1800C600B41F902D912D922D46144608031936
:100B2800962D972DA72D460A031D9B2D9C2DA42D90
:100B38000030B5000030B4000030B3000030B2001F
:100B4800B417B501AF2D0030B5000030B400003047
:100B5800B3000030B20031088039B6003608BF064D
:100B68003108B6003607B7003708C700B01FBD2DDB
:100B7800BE2DBF2D471447080319C32DC42DD42DEE
:100B8800470A031DC82DC92DD12D0030B1000030F2
:100B9800B0000030AF000030AE00B017B101DC2D5E
:100BA8000030B1000030B0000030AF000030AE00BF
:100BB800310830042F042E04031DE32DE42DFD2DF0
:100BC8000030B5000030B4000030B3000030B2008F
:100BD8008030B4047F30B5043F08B6003608B50449
:100BE8003508B1003408B0003308AF003208AE0051
:100BF8005C2F4608031D012E022E0B2E0030B1007B
:100C08000030B0000030AF000030AE005C2F460866
:100C1800B600B7013708B90047083602B800031C08
:100C2800B90338087F3EC00039080318013E003E6A
:100C3800C1003508BE003408BD003308BC003208C6
:100C4800BB000030B5000030B4000030B300003005
:100C5800B2000030C5000030C4000030C3000030CE
:100C6800C200C701812E470803193B2E3C2E5C2E7B
:100C78000130B6000310BB0DBC0DBD0DBE0DB60B8B
:100C88003E2E0130B6000310B20DB30DB40DB50DF4
:100C9800B60B472EC51F512E522E532E321401303B
:100CA800B6000310C20DC30DC40DC50DB60B552EED
:100CB80031083E02031D6A2E30083D02031D6A2ECC
:100CC8002F083C02031D6A2E2E083B02031C6D2EC2
:100CD8006E2E7D2E45172E08BB022F08031C2F0FE2
:100CE800BC023008031C300FBD023108031C310F51
:100CF800BE020130B6003608C7071A304702031C87
:100D0800862E872E372E3E083D043C043B040319EB
:100D18008E2E8F2EAE2E4214AE2E0130B60003104A
:100D2800B20DB30DB40DB50DB60B932EC51F9D2E88
:100D38009E2E9F2E32140130B6000310C20DC30D33
:100D4800C40DC50DB60BA12EFF30C0070318C10A8C
:100D5800FF30C107B41FB12EB22E912EC701C51F97
:100D6800B62EB72ED32EFF304205B600FF3043050E
:100D7800B700FF304405B8007F304505B900390891
:100D88003804370436040319CA2ECB2ECE2EC701D9
:100D9800C70AD32E321CD12ED22ED32ECB2E4708E3
:100DA8000319D72ED82E092F0130B20700300318A7
:100DB8000130B307003003180130B40700300318BE
:100DC8000130B507351CE92EEA2E092F3208B60086
:100DD8003308B7003408B8003508B9000130BA0044
:100DE800390DB90CB80CB70CB60CBA0BF42E39087F
:100DF800B5003808B4003708B3003608B20001302F
:100E0800C0070318C10A0030C1074108803AFF0033
:100E180080307F02031D122FFF304002031C152F64
:100E2800162F242FFF3083120313C0000030C10097
:100E38000030B5000030B4000030B3000030B2001C
:100E4800831203134108803AFF0080307F02031D9C
:100E58002F2F013040020318322F332F402F8312D7
:100E68000313C001C1010030B5000030B4000030E8
:100E7800B3000030B200BF01831203134008B6006C
:100E88003608C600461C492F4A2F4C2FB417502F3E
:100E98007F30B6003608B4054608B6000310360C95
:100EA800B7003708B5003F08B6003608B504F42D7A
:100EB80008000310831203136B0D6C0D83160313C4
:100EC800AD002D0883120313EE006E08031D6D2F6D
:100ED8006E2F772F0030EC000030EB000030EA0076
:100EE8000030E900F82F690883160313AD00831258
:100EF80003136A0883160313AE00831203136B08E7
:100F080083160313AF00831203136C0883160313AD
:100F1800B0001F300310B00CAF0CAE0CAD0CFF3E90
:100F2800031D8E2F2D08B100310883120313ED0025
:100F3800EB17FF30E905FF30EA05FF30EB0500301D
:100F4800EC059630EE02EE1FAA2FAB2FC92F6E08C4
:100F5800803A973E0318B12FB22FB32F6E2F01306E
:100F68000310EC0CEB0CEA0CE90CFF3E031DB42F4C
:100F7800013083160313AD002D0883120313EE0707
:100F8800031DC72FC82FB32FE82F20306E02031C74
:100F9800CE2FCF2FE32F6E2F013083160313AD0012
:100FA800031083120313E90DEA0DEB0DEC0D831604
:100FB8000313AD0BD42F013083120313EE026E0816
:100FC800031DE72FE82FD02F6D080319EC2FED2F05
:100FD800F82FE909EA09EB09EC09E90A0319EA0A11
:0E0FE8000319EB0A0319EC0A08002B3400343D
:1010040083120313A601A31F082809281028A20984
:10101400A309A20A0319A30AA601A60AA11F132859
:1010240014281928A009A109A00A0319A10A200853
:10103400210403191E281F284E28A501A50A2D28BE
:1010440001300310A00DA10DFF3E031D2328013024
:10105400A4002408A507A11F30283128222821082C
:101064002302031D372820082202031C3A283B28A8
:1010740041282008A2022108031CA303A302013073
:101084000310A10CA00CFF3E031D42280130A50251
:10109400031D4D284E2831282608031952285328A9
:1010A4005828A209A309A20A0319A30A2308A10024
:1010B4002208A00008000A168A1144270A128A1579
:1010C4000A168A11E3250A128A150A128A154C2473
:1010D4000A128A1583120313A301A30A01300A1604
:1010E4008A117F260A128A1524300A168A11A52627
:1010F4000A128A157A08031D8028812888280F304F
:101104000A168A11A5260A128A15AE287A03031D27
:101114008C288D28942808300A168A11A5260A12CC
:101124008A15AE2802307A06031D99289A28A12828
:101134001D300A168A11A5260A128A15AE28033014
:101144007A06031DA628A728AE2816300A168A1187
:10115400A5260A128A15AE280B3083160313BC0089
:101164002630BB005D30BA00BA0BB628BB0BB628DC
:10117400BC0BB62867280A128A110C2800300A16FC
:101184008A1110260A128A15343083120313A4001C
:10119400F130A300A30BCC28A40BCC2830300A16C2
:1011A4008A1110260A128A150D3083120313A40023
:1011B400FB30A300A30BDC28A40BDC2830300A1678
:1011C4008A1110260A128A151A3083120313A400F6
:1011D400F730A300A30BEC28A40BEC28F128303043
:1011E4000A168A1110260A128A1541308312031333
:1011F400A300A30BFB28FE2838300A168A111026F8
:101204000A128A150C300A168A1110260A128A1537
:1012140001300A168A1110260A128A1506300A1697
:101224008A1110260A128A15023083120313A500AC
:101234000430A400B930A300A30B1E29A40B1E295B
:10124400A50B1E2925290800003083120313AC00C6
:101254000030AB000030AA000030A90023082204AB
:10126400210420040319372938298529AD01AD0A41
:1012740048290130A8000310A00DA10DA20DA30D53
:10128400A80B3D290130A8002808AD07A31F4B294E
:101294004C293B290130A8000310A90DAA0DAB0D60
:1012A400AC0DA80B4E2923082702031D632922082D
:1012B4002602031D632921082502031D6329200832
:1012C4002402031C6629672976292008A402210820
:1012D400031C210FA5022208031C220FA6022308C7
:1012E400031C230FA702291401300310A30CA20C22
:1012F400A10CA00CFF3E031D77290130AD02031D94
:10130400842985294C292C08A3002B08A2002A082B
:10131400A1002908A000080083120313AD01A81F2F
:10132400942995299C29A709A809A70A0319A80A99
:10133400AD01AD0AAA1F9F29A029A929A909AA09B3
:10134400A90A0319AA0A0130AB002B08AD06AE01A5
:10135400AF01270828040319B029B129E829AC01F1
:10136400AC0ABF2901300310A70DA80DFF3E031DD1
:10137400B5290130AB002B08AC07A81FC229C3292B
:10138400B42901300310AE0DAF0DFF3E031DC42977
:1013940028082A02031DD02927082902031CD3295F
:1013A400D429DB292708A9022808031CAA03AA02B6
:1013B4002E1401300310A80CA70CFF3E031DDC29DA
:1013C4000130AC02031DE729E829C3292D080319BC
:1013D400EC29ED29F229AE09AF09AE0A0319AF0AC7
:1013E4002F08A8002E08A70008000A308312031350
:1013F400A0000030A1003108A3003008A2000A12A6
:101404008A1502200A128A15831203132108BF00C9
:101414002008BE000A30A7000030A8006430A000F5
:101424000030A1003108A3003008A2000A128A1576
:1014340002200A128A15831203133E082002A9000F
:101444003F08031C3F0A2102AA000A128A158E21B2
:101454000A128A15831203132808B7002708B60056
:101464006430A7000030A8003708A1003608A000A7
:10147400F630A200FF30A3000A168A11CB260A1206
:101484008A15831203133E082002B2003F08031C8E
:101494003F0A2102B30030083207A90031080318BB
:1014A400310A3307AA000A128A158E210A128A15F4
:1014B400831203132808B5002708B4003E08303E01
:1014C400B8003F080318013E003EB9003608303E1C
:1014D400BA0037080318013E003EBB003408303E12
:1014E400BC0035080318013E003EBD003C080A1646
:1014F4008A11FE250A128A15831203133C080A1660
:101504008A11F0250A128A15831203133A080A165F
:101514008A11FE250A128A15831203133A080A1641
:101524008A11F0250A128A152E300A168A11FE2510
:101534000A128A158312031338080A168A11FE2523
:101544000A128A158312031338080A168A11F02521
:101554000A128A15080083120313A8002808031925
:10156400B42AB52AC92AA31FB82AB92AC92A200924
:10157400AA002109AB002209AC002309AD00AA0A84
:101584000319AB0A0319AC0A0319AD0AD12A2308BB
:10159400AD002208AC002108AB002008AA002308F3
:1015A400220421042004031DD82AD92AE22A003067
:1015B400A3000030A2000030A1000030A000682B7E
:1015C4009630A4002408A900F42A0130A4002408B9
:1015D400A90701300310AD0CAC0CAB0CAA0CFF3EF8
:1015E400031DEC2AFE302D05031DF92AFA2AE72AE9
:1015F400162B0130A4002408A9070130AA070030E3
:1016040003180130AB07003003180130AC07003079
:1016140003180130AD0701300310AD0CAC0CAB0C5A
:10162400AA0CFF3E031D0E2BFF302D05031D1B2BA3
:101634001C2BFB2A282B0130A9020130A400031023
:10164400AA0DAB0DAC0DAD0DA40B212BAC1B2B2B9C
:101654002C2B322B023029020318312B322B1D2B59
:101664002918352B362B3E2BFF30AA05FF30AB054E
:101674007F30AC05FF30AD050310A90C2908A40088
:10168400A501A601A70118300310A40DA50DA60DF0
:10169400A70DFF3E031D462B2408AA042508AB040E
:1016A4002608AC042708AD04280803195A2B5B2B21
:1016B400602BA31F5E2B5F2B602BAD172D08A3009F
:1016C4002C08A2002B08A1002A08A0000800023060
:1016D40083120313B8000430B700B930B600B60B58
:1016E400712BB70B712BB80B712B782B0030831235
:1016F4000313B1000130B0008630AF00A030AE005B
:101704000A168A11C6270A128A15D0300A168A11B7
:1017140026260A128A15193083120313A0000030FA
:10172400A1000A168A11BF250A128A1507308312EE
:101734000313A0000030A1000A168A11BF250A1263
:101744008A150A168A1198250A128A15D0300A16A3
:101754008A1126260A128A156B3083120313A000FD
:101764000030A1000A168A11BF250A128A15013019
:1017740083120313A0000030A1000A168A11BF25AA
:101784000A128A150A168A1198250A128A15D03067
:101794000A168A1126260A128A151A30831203138E
:1017A400A0000030A1000A168A11BF250A128A156A
:1017B400003083120313A000A1000A168A11BF256A
:1017C4000A128A150A168A1198250A128A15D03027
:1017D4000A168A1126260A128A151C30831203134C
:1017E400A0000030A1000A168A11BF250A128A152A
:1017F400003083120313A000A1000A168A11BF252A
:101804000A128A150A168A1198250A128A15D030E6
:101814000A168A1126260A128A151B30831203130C
:10182400A0000030A1000A168A11BF250A128A15E9
:10183400183083120313A0000030A1000A168A1185
:10184400BF250A128A150A168A1198250A128A15C2
:10185400D0300A168A1126260A128A1538308312C5
:101864000313A0000030A1000A168A11BF250A1232
:101874008A15013083120313A0000030A1000A1658
:101884008A11BF250A128A150A168A1198250A1286
:101894008A150800D0300A168A1126260A128A15DB
:1018A4003B3083120313A0000030A1000A168A11F2
:1018B400BF250A128A150A168A1198250A128A1552
:1018C400D1300A168A1126260A128A1500300A1601
:1018D4008A11F2260A128A1500300A168A11F22693
:1018E4000A128A1500300A168A11F2260A128A157B
:1018F40000300A168A11F2260A128A1500300A16D6
:101904008A11F2260A128A1500300A168A11F22662
:101914000A128A1500300A168A11F2260A128A154A
:1019240083160313B200B30100300A168A11F2269B
:101934000A128A1583160313B400B5013408B500DE
:10194400B40132083404B60033083504B70000305B
:101954000A168A11F2260A128A1500300A168A110A
:10196400F2260A128A1500300A168A11F2260A1281
:101974008A1500300A168A11F2260A128A150030D6
:101984000A168A11F2260A128A1501300A168A11D9
:10199400F2260A128A150A168A1198250A128A153D
:1019A40083160313360883120313A000831603134C
:1019B400370883120313A1000030A11BFF30A200DB
:1019C400A30001300A128A15AD220A128A15831265
:1019D40003132308B5002208B4002108B30020082B
:1019E400B2004330B100AA30B0000030AF00003084
:1019F400AE000A128A1180250A128A158312031373
:101A04003108CF003008CE002F08CD002E08CC00BE
:101A14004230CB001230CA001E30C900B830C800B2
:101A24000A128A1578250A128A15831203134B08A1
:101A3400E3004A08E2004908E1004808E0004130B8
:101A4400DF002030DE000030DD000030DC000A1250
:101A54008A1121200A128A15831203135F08EC00ED
:101A64005E08EB005D08EA005C08E9000A128A11CE
:101A74005D270A128A15831203136A088316031357
:101A8400B90083120313690883160313B8003808D6
:101A9400831203138500A30102300A168A117F26DC
:101AA4000A128A1501300A168A11A5260A128A1505
:101AB40083160313390883120313B1008316031327
:101AC400380883120313B0000A128A15F7210A1288
:101AD4008A152B300A168A11A5260A128A152C306B
:101AE4000A168A11F0250A128A15080083120313B4
:101AF4004B088039D0005008D8004B08D00050075C
:101B0400D1005108DA00CA1F882D892D8A2D5A1454
:101B14005A0803198E2D8F2D9F2D5A0A031D932DBC
:101B2400942D9C2D0030CB000030CA000030C90039
:101B34000030C800CA17CB01A72D0030CB000030FD
:101B4400CA000030C9000030C8004F088039D000F6
:101B54005008D900590858060319B12DB22DB32DD8
:101B640058174F08D0005007D1005108D900CE1F94
:101B7400BC2DBD2DBE2D591459080319C22DC32DDA
:101B8400D32D590A031DC72DC82DD02D0030CF00E9
:101B94000030CE000030CD000030CC00CE17CF0195
:101BA400DB2D0030CF000030CE000030CD000030FF
:101BB400CC005A0859020318E02DE12D252E581F98
:101BC400E42DE52DE92D8030D0005008D8065A08C0
:101BD400D0005008DB005908D0005008DA005B0838
:101BE400D0005008D9004808D0005008DB004C0849
:101BF400D0005008C8005B08D0005008CC00490849
:101C0400D0005008DB004D08D0005008C9005B0824
:101C1400D0005008CD004A08D0005008DB004E0820
:101C2400D0005008CA005B08D0005008CE004B0812
:101C3400D0005008DB004F08D0005008CB005B08F0
:101C4400D0005008CF00DB015908D000D101510861
:101C5400D3005A085002D200031CD3035308803A1D
:101C6400FF0080307F02031D392E1A305202031CFC
:101C74003C2E3D2E7A2E831203134B084A0449044A
:101C84004804031D462E482E0130492E0030D00052
:101C94005008DB000030CB000030CA000030C9001F
:101CA4000030C8005908D0005008DA00822E5B1CAE
:101CB4005C2E5D2E662E5B08D0000310500C01389C
:101CC400D1005108DB00682E0310DB0C481C6B2E7E
:101CD4006C2E6D2EDB170130D0004B0DCB0CCA0CD3
:101CE400C90CC80CD00B6F2E0130D0005008DA0795
:101CF4008312031359085A02031C812E822E592E73
:101D0400581B852E862ED12E5A08031D8A2E8B2E03
:101D1400942E0030CB000030CA000030C9000030DF
:101D2400C800FF2F4C08C8074D0803110318013ED3
:101D340003199D2EC9074E0803110318013E031908
:101D4400A42ECA074F0803110318013E0319AB2E32
:101D5400CB074B1CAE2EAF2E852F5B1CB22EB32EA1
:101D6400BC2E5B08D0000310500C0138D100510880
:101D7400DB00BE2E0310DB0C481CC12EC22EC32E6A
:101D8400DB170130D0004B0DCB0CCA0CC90CC80CAE
:101D9400D00BC52E0130D0005008DA07852F4B0830
:101DA400803AFF004F08803A7F02031DE32E4E085D
:101DB4004A02031DE32E4D084902031DE32E4C087D
:101DC40048020318E62EE72E3F2FFF30D000FF30E5
:101DD400D100FF30D200FF30D3004C08D4004D08AE
:101DE400D5004E08D6004F08D7004808D402490849
:101DF400031C490FFE2EFF2ED5024A08031C4A0F6E
:101E0400042F052FD6024B08031C4B0F0A2F0B2F50
:101E1400D7025408D00755080318550F122F132F53
:101E2400D10756080318560F182F192FD207570831
:101E34000318570AD3075308CB005208CA005108A5
:101E4400C9005008C8008030D0005008D806DB090B
:101E5400DB0A5B08031D2F2F302F4D2F0130C807DD
:101E6400003003180130C907003003180130CA07D5
:101E7400003003180130CB074D2F4C08C8024D0821
:101E8400031C4D0FC9024E08031C4E0FCA024F0813
:101E9400031C4F0FCB024B084A0449044804031D9A
:101EA400542F552F812F5B08031D592F5A2F812F33
:101EB4000030CB000030CA000030C9000030C80038
:101EC400FF2F0130D0000310C80DC90DCA0DCB0D72
:101ED400D00B652FDB1F6F2F702F712F48145B1CE5
:101EE400742F752F782F0314DB0D7A2F0310DB0D5D
:101EF4005A0803197E2F7F2F812F0130DA02CA1F5F
:101F0400842F852F632FD901DB1F892F8A2F982FC8
:101F14005B087F3903198F2F902F932FD901D90A8A
:101F2400982F481C962F972F982F902F59080319F4
:101F34009C2F9D2FD12F0130C8070030031801308A
:101F4400C907003003180130CA07003003180130F4
:101F5400CB074B1CAE2FAF2FD12F4808D000490818
:101F6400D1004A08D2004B08D3000130D400530DED
:101F7400D30CD20CD10CD00CD40BB92F5308CB00FA
:101F84005208CA005108C9005008C8005A0A031967
:101F9400CC2FCD2FD12F0130D0005008DA075A0AA8
:101FA4000319D52FD62FDB2F5A08031DDA2FDB2F69
:101FB400E92F0030CB000030CA000030C9000030E7
:101FC400C8005A08031DE72FE82FE92FD8015A1C2F
:101FD400EC2FED2FEF2FCA17F32F7F30D0005008CE
:101FE400CA055A08D0000310500CD1005108CB0088
:101FF400D81FFD2FFE2FFF2FCB17080010308A00AB
:102004000408840A82070034543445344D3450346F
:102014003A342034003452344534443420342034A7
:10202400203400344F3446344634203420342034B1
:102034000034473452344E342034203420340034B5
:1020440059344C345734203420342034003453343D
:1020540045344D3446343A34203400342034433447
:02206400003446
:102B0C000A168A11C9250A168A1183160313111481
:102B1C0008000A168A11C9250A168A11831603138E
:102B2C00111508000A168A11D6250A168A11831661
:102B3C000313111508000A168A11C9250A168A11E1
:102B4C00700883120313930008000A168A11D62505
:102B5C000A168A11831603139112111608000A160D
:102B6C008A11D6250A168A1183160313911611168B
:102B7C0008000A168A11D6250A168A118312031325
:102B8C00200893000800831603131419CE2DCF2DA3
:102B9C00C92D11081F39031DD42DD52DC92D0800A1
:102BAC00831603131419DB2DDC2DD62D11081F39B8
:102BBC00031DE12DE22DD62D080000300A168A11D6
:102BCC0010260A168A1101300A168A1110260A16C6
:102BDC008A11080083120313A00083160313981C98
:102BEC00F82DF92DF32D83120313200899000800FA
:102BFC0083120313A10006142108880086141930CF
:102C0C0083120313A000A00B092E0C2E83120313A6
:102C1C008610080083120313A200061022088800F5
:102C2C0086140B3083120313A1006130A000A00B9B
:102C3C001D2EA10B1D2E222E8312031386100800AD
:102C4C0083120313A4000A168A11D6250A168A11B8
:102C5C00831603131114831203132408A200A30177
:102C6C002208A0002308A1000A168A11BF250A1603
:102C7C008A11080083120313A3008316031318127E
:102C8C008312031323080A168A116D270A168A1158
:102C9C0083120313981783160313181398168312B1
:102CAC0003130C16181318160C16080083120313B2
:102CBC008C1E612E622E782E1A08F6007608F9000A
:102CCC007908D03EF6007608FA007A08F600760805
:102CDC00F20050300A168A1199270A168A118312AB
:102CEC0003138C1278088A00770E8300FE0E7E0E7A
:102CFC00090083120313A5002503031D862E872EBE
:102D0C00932E23087F3EA4002408A60026080A164A
:102D1C008A1110260A168A11A42E02302506031DCC
:102D2C00982E992EA42E2308BF3EA4002408A6009A
:102D3C0026080A168A1110260A168A110800831210
:102D4C000313A400A301BD2E2308240784000A1634
:102D5C008A1100200A168A110A168A11FE250A16F3
:102D6C008A11013083120313A2002208A30723083F
:102D7C00240784000A168A1100200A168A11003AC8
:102D8C00031DC92ECA2EAA2E080083120313A401F8
:102D9C00A501201CD22ED32ED92E2208A40703184D
:102DAC00A50A2308A50701300310A20DA30DFF3EB1
:102DBC00031DDA2E01300310A10CA00CFF3E031DE5
:102DCC00E12E20082104031DEC2EED2ECF2E25081C
:102DDC00A1002408A000080083120313A10083168D
:102DEC0003139115141CFB2EFC2EF82E83120313C7
:102DFC001308A0002008A2002108031D062F072F8E
:102E0C000D2F0A168A11AB250A168A11122F0A16D3
:102E1C008A11B5250A168A11831203138C1D172FDC
:102E2C00182F122F8C112208080083120313A800EC
:102E3C00A401A5012008A200A3012208A6002308D2
:102E4C00A700281C2A2F2B2F312F2608A407031884
:102E5C00A50A2708A50701300310A60DA70DFF3EF4
:102E6C00031D322F0310A80C2808031D3E2F3F2FE3
:102E7C00272F2508A1002408A0000800831603179B
:102E8C0088018901831603138501061086108801B9
:102E9C008312031385017030831603138F040F14F0
:102EAC008B170B178C16831203138C120A128A15AC
:102EBC00C0200A168A1108300A168A1140260A16F2
:102ECC008A110A128A1569230A168A1108008312BC
:102EDC000313A200882F83160313181583160317E8
:102EEC00871567308316031399009A01982F831660
:102EFC00031318118316031787110C308316031351
:102F0C0099007B2F2208A000A1012108003A031987
:102F1C00902F982F2008043A0319712F0C3A03199B
:102F2C007D2F982F0800F5000A168A1186250A169F
:102F3C008A117508F300F4017308F0007408F100AD
:102F4C000A168A11A1250A168A117208F300F401D7
:102F5C007308F0007408F1000A168A11A1250A16EC
:102F6C008A110A168A118F250A168A118230F400EA
:102F7C00DD30F300F30BC02FF40BC02FC52F08006E
:102F8C0028308312031394008316031391018312C8
:102F9C0003132E08B2002F08B3003008B400310818
:102FAC00B50002300310B20DB30DB40DB50DFF3EDC
:102FBC00031DD82F3508A3003408A2003308A10044
:102FCC003208A0000030A7007A30A6001230A5000D
:102FDC000030A4000A128A1526210A168A118312BF
:102FEC0003132008FF3E83160313930094018715E7
:042FFC0007160800AC
:04400E00D420FF3F7C
:00000001FF
